:100000000C945C000C9479000C9479000C947900A9
:100010000C9479000C9479000C9479000C9479007C
:100020000C9479000C9479000C9479000C9479006C
:100030000C9479000C9479000C9479000C9479005C
:100040000C94A0000C9479000C9479000C94790025
:100050000C9479000C9479000C9479000C9479003C
:100060000C9479000C947900000000002400270013
:100070002A0000000000250028002B0004040404CE
:100080000404040402020202020203030303030342
:10009000010204081020408001020408102001021F
:1000A00004081020000000080002010000030407FB
:1000B000000000000000000011241FBECFEFD8E0B8
:1000C000DEBFCDBF11E0A0E0B1E0EAEEF4E002C097
:1000D00005900D92A030B107D9F721E0A0E0B1E082
:1000E00001C01D92AA30B207E1F70E94EA000C9409
:1000F00073020C9400003FB7F89480910601909130
:100100000701A0910801B091090126B5A89B05C07F
:100110002F3F19F00196A11DB11D3FBFBA2FA92F86
:10012000982F8827BC01CD01620F711D811D911D83
:1001300042E0660F771F881F991F4A95D1F70895EF
:100140001F920F920FB60F9211242F933F938F930C
:100150009F93AF93BF938091020190910301A0916F
:100160000401B09105013091010123E0230F2D37E7
:1001700058F50196A11DB11D209301018093020144
:1001800090930301A0930401B093050180910601AF
:1001900090910701A0910801B09109010196A11D5C
:1001A000B11D8093060190930701A0930801B093BD
:1001B0000901BF91AF919F918F913F912F910F9026
:1001C0000FBE0F901F90189526E8230F0296A11DD1
:1001D000B11DD2CF789484B5826084BD84B581602E
:1001E00084BD85B5826085BD85B5816085BD809102
:1001F0006E00816080936E0010928100809181007A
:100200008260809381008091810081608093810071
:10021000809180008160809380008091B100846033
:100220008093B1008091B00081608093B000809194
:100230007A00846080937A0080917A008260809353
:100240007A0080917A00816080937A0080917A00B0
:10025000806880937A001092C100EDE9F0E024916B
:1002600069E8262E60E0362EF1018491882399F00A
:1002700090E0880F991FFC01E859FF4FA591B491B8
:10028000FC01EE58FF4F859194918FB7F8949C91A3
:10029000292B2C938FBF44244A9443E0542E612C85
:1002A000712C08EE13E0C0E0D0E0F0E4F0937C00A5
:1002B00080917A00806480937A0080917A0086FD34
:1002C000FCCFA0917800B091790028E330E00E9443
:1002D0005802A30192010E94F4012115310509F48D
:1002E0003DC0B901660F771FC8010E94440290917A
:1002F000000121E0922790930001E1EBF0E02491CE
:10030000EDE9F0E08491F10134913323D1F022231F
:1003100039F0233099F140F52130B1F12230C1F1AB
:10032000E32FF0E0EE0FFF1FEE58FF4FA591B491C1
:100330002FB7F894911139C09C91809589238C93A3
:100340002FBF6B01770FEE08FF080E947B004B0167
:100350005C01C114D104E104F104D1F5209709F442
:10036000A4CF0E940000A1CF2730A9F02830C9F007
:100370002430B1F6209180002F7D03C020918000B1
:100380002F7720938000CCCF24B52F7724BDC8CF02
:1003900024B52F7DFBCF2091B0002F772093B000A4
:1003A000BFCF2091B0002F7DF9CF9C91892BC7CF73
:1003B000F1E0CF1AD108E108F10828EE820E23E01F
:1003C000921EA11CB11CC114D104E104F10409F274
:1003D0000E947B00681979098A099B09683E73406D
:1003E0008105910528F7B5CF052E97FB1EF40094E3
:1003F0000E940B0257FD07D00E94130207FC03D096
:100400004EF40C940B0250954095309521953F4F3A
:100410004F4F5F4F089590958095709561957F4FF0
:100420008F4F9F4F0895A1E21A2EAA1BBB1BFD01FF
:100430000DC0AA1FBB1FEE1FFF1FA217B307E407C3
:10044000F50720F0A21BB30BE40BF50B661F771F1B
:10045000881F991F1A9469F76095709580959095FB
:100460009B01AC01BD01CF010895A29FB001B39FD4
:10047000C001A39F700D811D1124911DB29F700DAD
:10048000811D1124911D089597FB072E16F40094E9
:1004900007D077FD09D00E945F0207FC05D03EF42B
:1004A000909581959F4F0895709561957F4F089520
:1004B0000E943502B7FF0895821B930B0895AA1B73
:1004C000BB1B51E107C0AA1FBB1FA617B70710F03F
:1004D000A61BB70B881F991F5A95A9F78095909571
:0A04E000BC01CD010895F894FFCF90
:00000001FF
